S01D000050494E204368616E676520496E74657272757074732E737265635A
S11300000C9434000C943E000C943E000C9440007C
S11300100C943E000C943E000C943E000C943E0064
S11300200C943E000C943E000C943E000C943E0054
S11300300C943E000C943E000C943E000C943E0044
S11300400C943E000C943E000C943E000C943E0034
S11300500C943E000C943E000C943E000C943E0024
S11300600C943E000C943E0011241FBECFEFD8E048
S1130070DEBFCDBF0E944B000C945A000C940000CC
S11300801F920F920FB60F9211241BB80F900FBE40
S11300900F901F9018958FEF8AB98BB9E8E6F0E0BE
S11300A0808181608083EBE6F0E0808181608083E1
S10B00B07894FFCFF894FFCF10
S9030000FC
