S0140000427574746F6E20496E7075742E7372656364
S11300000C9434000C943E000C943E000C943E007E
S11300100C943E000C943E000C943E000C943E0064
S11300200C943E000C943E000C943E000C943E0054
S11300300C943E000C943E000C943E000C943E0044
S11300400C943E000C943E000C943E000C943E0034
S11300500C943E000C943E000C943E000C943E0024
S11300600C943E000C943E0011241FBECFEFD8E048
S1130070DEBFCDBF0E9440000C944F000C940000E2
S11300808FEF8AB914B81BB88BB9189B03C083E0EF
S11300908BB9FBCF1899F9CF8CE08BB9F6CFF894D4
S10500A0FFCF8C
S9030000FC
