S01D0000536576656E205365676D656E7420446973706C61792E737265631D
S11300000C9434000C9449000C9449000C9449005D
S11300100C9449000C9449000C9449000C94490038
S11300200C9449000C9449000C9449000C94490028
S11300300C9449000C9449000C9449000C94490018
S11300400C9449000C9449000C9449000C94490008
S11300500C9449000C9449000C9449000C944900F8
S11300600C9449000C94490011241FBECFEFD8E032
S1130070DEBFCDBF11E0A0E0B1E0E6EDF0E002C0EC
S113008005900D92AC30B107D9F70E944F000C9443
S113009069000C9400008FEF8AB91BB808950E9480
S11300A04B0080E013C0E82FF0E0E050FF4F908158
S11300B09BB92FEF39E698E1215030409040E1F7A9
S11300C000C000008B3009F480E08F5F8B3058F360
S10900D0E8CFF894FFCF15
S10F00D6DB50C7D65C9E9FD0DFDE20000C
S9030000FC
