:100000000C9434000C9449000C9449000C94490061
:100010000C9449000C9449000C9449000C9449003C
:100020000C9449000C9449000C9449000C9449002C
:100030000C9449000C9449000C9449000C9449001C
:100040000C9449000C9449000C9449000C9449000C
:100050000C9449000C9449000C9449000C944900FC
:100060000C9449000C94490011241FBECFEFD8E036
:10007000DEBFCDBF11E0A0E0B1E0ECEEF0E002C0E9
:1000800005900D92A230B107D9F70E944B000C9455
:1000900074000C940000E0910001F09101018FEFD9
:1000A0008083E0910001F09101011182E091000153
:1000B000F09101018FEF81832FEF83ED90E32150C9
:1000C00080409040E1F700C00000E0910001F09115
:1000D000010111822FEF83EC99E021508040904084
:0C00E000E1F700C00000E2CFF894FFCF71
:0200EC002A00E8
:00000001FF
