:100000000C9434000C943E000C943E000C943E0082
:100010000C943E000C943E000C943E000C943E0068
:100020000C943E000C943E000C943E000C943E0058
:100030000C943E000C943E000C943E000C943E0048
:100040000C943E000C943E000C943E000C943E0038
:100050000C943E000C943E000C943E000C943E0028
:100060000C943E000C943E0011241FBECFEFD8E04C
:10007000DEBFCDBF0E948B000C94AA000C94000040
:1000800093B1892F817090FF0EC02FEF80E792E02F
:10009000215080409040E1F700C0000093B1892FCB
:1000A000817090FD81E0089520E015C03BB181E0B2
:1000B00090E0022E02C0880F991F0A94E2F783276E
:1000C0008BB93FEF81EE94E0315080409040E1F7F2
:1000D00000C000002F5F243048F3089524E018C0CA
:1000E0003BB1422F50E04150510981E090E002C005
:1000F000880F991F4A95E2F783278BB93FEF81EE6E
:1001000094E0315080409040E1F700C00000215061
:100110002111E6CF08958FEF8AB914B81BB8C0E05B
:100120000E9440008823E1F3CC2319F0C13029F06C
:1001300007C00E945400CF5F03C00E946E00C150F0
:100140002FEF81EE94E0215080409040E1F700C015
:080150000000E6CFF894FFCF98
:00000001FF
