S01F0000496E74726F64756374696F6E20746F20506F696E7465722E73726563FF
S11300000C9434000C943E000C943E000C943E007E
S11300100C943E000C943E000C943E000C943E0064
S11300200C943E000C943E000C943E000C943E0054
S11300300C943E000C943E000C943E000C943E0044
S11300400C943E000C943E000C943E000C943E0034
S11300500C943E000C943E000C943E000C943E0024
S11300600C943E000C943E0011241FBECFEFD8E048
S1130070DEBFCDBF0E9440000C9446000C940000EB
S11300808FEF8AB91BB88BE28BB9FFCFF894FFCFFF
S9030000FC
