:100000000C9434000C9446000C9446000C9446006A
:100010000C9446000C9446000C9446000C94460048
:100020000C9446000C9446000C9446000C94460038
:100030000C9446000C9446000C9446000C94460028
:100040000C9466000C9446000C9446000C944600F8
:100050000C9446000C9446000C9446000C94460008
:100060000C9446000C94460011241FBECFEFD8E03C
:10007000DEBFCDBF21E0A0E0B1E001C01D92A33002
:10008000B207E1F70E945B000C9495000C9400000D
:100090008FEF8AB91BB8089586E090E097BD86BDC2
:1000A00080E095E095BD84BDEEE6F0E08081816062
:1000B0008083789408950E9448000E944C0010921A
:1000C00001011092000110920201FFCF1F920F92C6
:1000D0000FB60F9211242F938F939F9320910201BB
:1000E00081E090E002C0880F991F2A95E2F79BB14A
:1000F00089278BB9809102018F5F809302018091E3
:100100000201883018F48091020101C080E08093E0
:10011000020186E090E097BD86BD9F918F912F915F
:0E0120000F900FBE0F901F901895F894FFCF10
:00000001FF
