S0190000506F696E746572204578616D706C6520342E73726563EA
S11300000C9434000C943E000C943E000C943E007E
S11300100C943E000C943E000C943E000C943E0064
S11300200C943E000C943E000C943E000C943E0054
S11300300C943E000C943E000C943E000C943E0044
S11300400C943E000C943E000C943E000C943E0034
S11300500C943E000C943E000C943E000C943E0024
S11300600C943E000C943E0011241FBECFEFD8E048
S1130070DEBFCDBF0E9458000C9485000C94000094
S113008086E08BB92FEF81EE94E0215080409040C0
S1130090E1F700C00000089589E08BB92FEF81EEED
S11300A094E0215080409040E1F700C000000895A2
S11300B0CF93DF9300D000D0CDB7DEB78FEF8AB9EE
S11300C080E490E09A8389838CE490E09C838B8322
S11300D010E018C0E12FF0E0EE0FFF1F81E090E088
S11300E08C0F9D1FE80FF91F0190F081E02D0995F9
S11300F09FEF21EE84E0915020408040E1F700C062
S111010000001F5F123030F3E3CFF894FFCFFE
S9030000FC
