:100000000C9434000C943E000C943E000C943E0082
:100010000C943E000C943E000C943E000C943E0068
:100020000C943E000C943E000C943E000C943E0058
:100030000C943E000C943E000C943E000C943E0048
:100040000C943E000C943E000C943E000C943E0038
:100050000C943E000C943E000C943E000C943E0028
:100060000C943E000C943E0011241FBECFEFD8E04C
:10007000DEBFCDBF0E9440000C9468000C940000CD
:100080008FEF8AB914B880E0813061F4189B0AC000
:100090002FEF39E688E1215030408040E1F700C081
:1000A000000080E081110DC0189B0BC091E08927F2
:1000B0009FEF29E638E1915020403040E1F700C041
:1000C000000080FF03C09FEF9BB9DECF1BB8DCCFE1
:0400D000F894FFCFD2
:00000001FF
