S00E00004465727330312E7372656327
S11300000C9434000C943E000C943E000C943E007E
S11300100C943E000C943E000C943E000C943E0064
S11300200C943E000C943E000C943E000C943E0054
S11300300C943E000C943E000C943E000C943E0044
S11300400C943E000C943E000C943E000C943E0034
S11300500C943E000C943E000C943E000C943E0024
S11300600C943E000C943E0011241FBECFEFD8E048
S1130070DEBFCDBF0E9440000C946B000C940000C6
S11300808FEF84B98AB980E285B92FEF39E688E128
S1130090215030408040E1F700C0000015B89FEFC8
S11300A029E638E1915020403040E1F700C00000DB
S11300B080E00EC08BB99FEF29E638E191502040D3
S11300C03040E1F700C000008F3009F480E08F5F1A
S10D00D0803180F3D8CFF894FFCFFD
S9030000FC
