S01E0000535049205265676973746572204D6F64656C6C696E672E73726563FA
S11300000C9434000C9449000C9449000C9449005D
S11300100C9449000C9449000C9449000C94490038
S11300200C9449000C9449000C9449000C94490028
S11300300C9449000C9449000C9449000C94490018
S11300400C9449000C9449000C9449000C94490008
S11300500C9449000C9449000C9449000C944900F8
S11300600C9449000C94490011241FBECFEFD8E032
S1130070DEBFCDBF11E0A0E0B1E0EEECF0E002C0E5
S113008005900D92A230B107D9F70E9462000C943A
S113009065000C940000E0910001F0910101808161
S11300A08C7F82608083E0910001F0910101808166
S11300B080618083E0910001F0910101808180647E
S11100C0808308950E944B00FFCFF894FFCF79
S10500CE4C00E0
S9030000FC
