S01F000054696D65722054434352304120616E64205443435230422E7372656336
S11300000C9434000C943E000C943E000C943E007E
S11300100C943E000C943E000C943E000C943E0064
S11300200C943E000C943E000C943E000C943E0054
S11300300C943E000C943E000C943E000C943E0044
S11300400C943E000C943E000C943E000C943E0034
S11300500C943E000C943E000C943E000C943E0024
S11300600C943E000C943E0011241FBECFEFD8E048
S1130070DEBFCDBF0E9440000C944F000C940000E2
S11300802FEF3FEF35BD24BD85B5887F856085BDE5
S113009035BD24BD85B5887F816085BDF1CFF894D9
S10500A0FFCF8C
S9030000FC
